:020000040800F2
:1000000048290020890200083F330008812F00089A
:100010003D3300082507000861400008000000008B
:100020000000000000000000000000004333000852
:10003000270700080000000041330008453300088E
:10004000A3020008A3020008A3020008A3020008FC
:10005000A3020008A3020008A3020008A3020008EC
:10006000A3020008A3020008A3020008A3020008DC
:10007000A3020008A3020008A3020008A3020008CC
:10008000A3020008A3020008A9060008A3020008B2
:10009000A3020008A3020008A3020008A3020008AC
:1000A000A3020008C1330008A3020008A30200084D
:1000B000A3020008A3020008A3020008A30200088C
:1000C000A3020008A3020008A3020008A30200087C
:1000D000A30200083D4000084940000855400008C0
:1000E000A3020008A3020008A3020008A30200085C
:1000F000A3020008A3020008A3020008A30200084C
:1001000000000000A302000800000000A302000895
:10011000A3020008A3020008A3020008A30200082B
:10012000A3020008A3020008A3020008A30200081B
:10013000A30200080000000000000000A302000865
:10014000A3020008A3020008000000000000000055
:10015000000000000000000000000000000000009F
:10016000000000000000000000000000A3020008E2
:10017000A3020008A3020008A3020008A3020008CB
:10018000A3020008A3020008000000000000000015
:100190000000000000000000A3020008A302000805
:1001A0000000000000000000A3020008A3020008F5
:1001B000A3020008A3020008A3020008A30200088B
:1001C000A3020008A3020008A3020008A30200087B
:1001D000A3020008A302000800F002F800F045F8AE
:1001E0000AA090E8000C82448344AAF10107DA4592
:1001F00001D100F03AF8AFF2090EBAE80F0013F09F
:10020000010F18BFFB1A43F001031847603F0000BD
:10021000803F0000103A24BF78C878C1FAD852074E
:1002200024BF30C830C144BF04680C607047000070
:100230000023002400250026103A28BF78C1FBD8EF
:10024000520728BF30C148BF0B6070471FB503F08D
:1002500067FF00F0A9F904000020002103F04AFF25
:10026000401C60601FBD10B510BD00F0AFF9114615
:10027000FFF7ECFF03F006FF00F0CDF903B4FFF742
:10028000F2FF03BC03F0FDFE094880470948004720
:10029000FEE7FEE7FEE7FEE7FEE7FEE7FEE7FEE736
:1002A000FEE7FEE704480549054A064B7047000093
:1002B000B1330008D9010008482300204829002054
:1002C0004825002048250020704753EA020C00F022
:1002D00069802DE9F04B4FF00006002B1FBFB3FAE9
:1002E00083F503FA05F424FA05F65E4012BF1643BF
:1002F000B2FA82F502FA05F4C5F120051EBF22FA12
:1003000005FC44EA0C04203556EA044C4FEA144438
:1003100018BF641C4FF000084FF00009904271EBC9
:10032000030C39D3002919BFB1FA81F701FA07F696
:10033000B0FA80F700FA07F6C7F120071EBF20FACF
:1003400007FC46EA0C062037B6FBF4FCA7EB0507D2
:10035000103F07F01F0BCBF120060CFA0BFB2CFA19
:1003600006F644BFB3460026202FA4BF5E464FF0DA
:10037000000B5BEA060C08BF4FF0010B19EB0B09F1
:10038000ABFB027C48EB0608C01B06FB02CC0BFB58
:1003900003CC71EB0C01C1E70B46024641464846CF
:1003A000BDE8F08B13B54FF000004FF00001AFF344
:1003B0000080BDE81C4070472DE9F04791460F468C
:1003C00080460446002614F8015B2DB100F08CF83D
:1003D0000068405DC007F6D12B2D02D02D2D18D01E
:1003E000641E4A463946204600F08AF827B139682B
:1003F000A14201D1C7F800804FF0020471050BD56E
:100400004042002803DD00F077F80460A007BDE853
:10041000F08746F48066E4E70028F8DA00F06CF82C
:1004200004606FF00040F2E730B505460B462A46FF
:1004300013F8014B12F8010B08B1A042F8D01CB11F
:10044000002802D06D1CF1E7284630BD4FF00002B5
:100450000429C0F0128010F0030C00F01B80CCF1D6
:10046000040CBCF1020F18BF00F8012BA8BF20F844
:10047000022BA1EB0C0100F00DB85FEAC17C24BF98
:1004800000F8012B00F8012B48BF00F8012B704742
:100490004FF0000200B5134694469646203922BF1D
:1004A000A0E80C50A0E80C50B1F12001BFF4F7AF68
:1004B000090728BFA0E80C5048BF0CC05DF804EB4A
:1004C000890028BF40F8042B08BF704748BF20F8B8
:1004D000022B11F0804F18BF00F8012B70477047B6
:1004E000704770477047000010B500F05DF8001DC0
:1004F00010BD00BF013C000000487047E42200200E
:100500002DE9F05F824615468B4600270AF101046B
:10051000B9460078302801D09DB113E014F8010BE2
:100520000127782803D0582801D045B10AE00DB141
:10053000102D07D1002714F8010B102502E0082523
:1005400000E00A250026B0460EE005FB080005FB8A
:1005500006F101271FFA80F801EB1046B6F5803F3F
:1005600000D3B94614F8010B294600F021F8002801
:10057000EBDABBF1000F05D00FB1641E00E054466A
:10058000CBF80040B9F1000F06D0FFF7B5FF02210C
:100590000160C81EBDE8F09F48EA0640FAE7000087
:1005A00000487047E42200200048704704230020E0
:1005B0003A2800D2303820F02002412A01D3A2F19B
:1005C0003700884201D34FF0FF3070477546FFF780
:1005D000E7FFAE4605006946534620F00700854612
:1005E00018B020B5FFF75EFEBDE820404FF00006D2
:1005F0004FF000074FF000084FF0000B21F007010B
:10060000AC46ACE8C009ACE8C009ACE8C009ACE84D
:10061000C0098D46704710B50446AFF300802046F0
:10062000BDE81040FFF72ABE4FF0013C50F8042B04
:1006300051F8043B9A4221D1A2EB0C03934313EAF5
:10064000CC1317D150F8042B51F8043B9A4215D122
:10065000A2EB0C03934313EACC130BD150F8042BF9
:1006600051F8043B9A4209D1A2EB0C03934313EADD
:10067000CC13DBD04FF00000704700BFD01A01BA96
:10068000B1FA81F101F0180122FA01F0CB40C1F179
:100690002001DBB2C0B2C01A2CFA01F3D11A914387
:1006A00011EAC311E6D17047014800F045BB0000D4
:1006B0001C20002070B50446006881688268C1F380
:1006C000400112F0010F28D039BB816801F00D0103
:1006D000012914D18168124A1140891C8160216866
:1006E0000320086000F05AFF054612E000F056FFB4
:1006F000401B02280DD920688068C00709D0E06D32
:1007000040F01000E065206E40F0010020660120FE
:1007100070BD20688068C007E8D1002070BD00006F
:10072000C0FFFF7FFEE7704772B6FEE7F8B5002610
:100730000446009690F858000D4601280BD0012081
:1007400084F858002046FFF7B5FF0100E06D04D0A3
:1007500040F010002AE00220F8BD20F4885040F05C
:100760000200E06520688268134B1A4005F0804360
:100770001A4342F000428260104A20680EE0009B5B
:100780005B1C0093934209D3E06D20F0020040F01F
:100790001000E06584F858600120F8BD8368DB0F25
:1007A000EDD1E06D20F0020040F00100E06584F83A
:1007B00058600846F8BD0000C0FFFF3F02DE04009D
:1007C0007047704770477047704700002DE9F04749
:1007D000044690F858009CB00F464FF000090128DD
:1007E00015D0012084F85800002617961896206826
:1007F0004FF0A04840450ED1384D0095284602F0F4
:10080000CEFB8246206802F0CAFB60B10EE00220F7
:100810001CB0BDE8F087E06D40F02000E06584F892
:1008200058600120F4E7BAF1000F09D0E06D40F004
:100830002000E0654FF0010984F858604846E7E77A
:1008400020684146884201D0A84201D1244800E0F6
:1008500024483B68DFF890C0002B836840F61F7285
:1008600023F4604322D094F8388043EA4833D7F821
:10087000048043EA0803836023688B4201D0AB42C3
:1008800007D18968AB6801F0010103F00103194346
:1008900003E0DCF8081001F001010029CCD1BB68AD
:1008A0003968194383689343194315E083602368CB
:1008B0008B4201D0AB4207D18968AB6801F00101DE
:1008C00003F00103194303E0DCF8081001F0010113
:1008D0000029B1D1816891438160ADE700010050EA
:1008E0000003005000070050000400502DE9F84FAD
:1008F00000270446009790F85800DFF800840D4662
:10090000B946012811D0012684F85860206802F009
:1009100042FB60B1E06D40F02000E0655FF0010750
:1009200084F858903846BDE8F88F0220FBE7D5E9F7
:1009300000210C23206803EA91131844036B01F093
:100940001F014FF01F0C0CFA01FCC2F3846223EA72
:100950000C038A4013430363206802F01CFB8246A9
:10096000206802F014FB5AEA00003CD1AA6829680A
:100970002068B2F1004F37D002F01DFB20684169BA
:1009800021F00041416120686969C268C2F3C10277
:10099000520091402A69042A31D000EB82002B6872
:1009A000026EDFF85CC303F0F84302EA0C020B436B
:1009B0001A4342F00041016622682869A96902EBE6
:1009C0008000026E22F080720A430266297F20684E
:1009D0002A69012910D0002100EB8200026E22F06A
:1009E00000720A4302667DE0002202F0E4FA206809
:1009F000416941F00041C5E74FF00071ECE700218B
:100A000002F0BFFA400320684FF0000172D002F0FC
:100A1000B8FA90FAA0F0B0FA80F1286842036ED0DC
:100A200090FAA0F0B0FA80F0814204D10022114681
:100A3000206802F0CFFA0121206802F0A2FA4003F8
:100A400020684FF001015DD002F09BFA90FAA0F00F
:100A5000B0FA80F12868420359D090FAA0F0B0FAB9
:100A600080F0814204D100220121206802F0B2FA14
:100A70000221206802F085FA400320684FF002014D
:100A800048D002F07EFA90FAA0F0B0FA80F128681F
:100A9000420344D090FAA0F0B0FA80F0814204D131
:100AA00000220221206802F095FA0321206802F05A
:100AB00068FA400320684FF0030133D002F061FA76
:100AC00090FAA0F0B0FA80F1286842032FD090FA93
:100AD000A0F0B0FA80F0814204D100220321206806
:100AE00002F078FA2068816811F0010F22D0ACE0A2
:100AF00000E004E002F045FAC0F384618DE7C0F342
:100B0000846091E702F03DFAC0F38461A2E7C0F38C
:100B10008460A6E702F035FAC0F38461B7E7C0F35A
:100B20008460BBE702F02DFAC0F38461CCE7C0F328
:100B30008460D0E72A7B296850F8B03FC1F3120CDB
:100B400023EA0C0302F0180C6E4A22FA0CF20A4057
:100B500013430360E968414577D1286841031CD0FD
:100B600090FAA0F1B1FA81F1491C01F01F010929A5
:100B70004FEA403132D8002912D000BF90FAA0F1DC
:100B8000B1FA81F101F1010101F01F0106FA01F64C
:100B900009D100BFC0F3846109E0C0F38461E3E7D9
:100BA000C0F38461EEE790FAA0F1B1FA81F101F1AE
:100BB000010101F01F0146EA816102D1C0F38460A6
:100BC00003E090FAA0F0B0FA80F000F1010000F02C
:100BD0001F0000EB400041EA005132E000290ED036
:100BE00090FAA0F1B1FA81F101F1010101F01F01C8
:100BF00006FA01F606D100BFC0F3846106E0C0F337
:100C00008461F1E790FAA0F1B1FA81F101F10101FB
:100C100001F01F0146EA816102D1C0F3846003E064
:100C200090FAA0F0B0FA80F000F1010000F01F008F
:100C3000354A00EB400002EB005041EA000141F070
:100C40000071AA68206802F0B6F930482B680342A8
:100C50003FF466AE22684FF0A04C2D4D2D482E4E2D
:100C6000624501D0AA4201D1014600E031468968BF
:100C7000DFF8A88001F0E071434503D0DFF8A080E1
:100C800043451BD15FEA012818D462457FF448AE82
:100C9000826841F4000122F0E0720A438260214838
:100CA00021490068B0FBF1F0401C00EB40008000DF
:100CB00000E0401E00900028FBD131E6DFF86C8098
:100CC000434507D15FEAC11804D46245F5D141F02C
:100CD00080710CE0DFF858804345EED14B02ECD434
:100CE000AA42EAD0624500D0304641F480018268D1
:100CF00022F0E0720A43826012E6000000007F40AA
:100D000000F0FF03FFFF0700000020FE0000088046
:100D1000000100500003005000070050000021C3F4
:100D20001000C09018000020400D0300000052C7C2
:100D3000000084CB704770472DE9F05F04460068DF
:100D4000066845684FF0A048DFF86CB2DFF86C9297
:100D5000404501D0484501D1584600E09848806898
:100D600000F01F07B0070ED5A8070CD5E06DC00630
:100D700003D4E06D40F40060E0652046FFF720FDFD
:100D8000216802200860700701D5680703D4300786
:100D900037D5280735D5E06DC00603D4E06D40F4A3
:100DA0000070E065206802F0FEF820B32068484536
:100DB00001D1424600E00246824208D03FB1052FF1
:100DC00005D0092F03D0484503D1414602E0C16850
:100DD00001E00146C96889040DD4016809070AD5F4
:100DE00002F0D9F858B3E06D40F01000E065206ED5
:100DF00040F0010020662046FFF79CFF21680C2090
:100E00000860B00601D5A80603D4700658D5680658
:100E100056D5E06DC00603D4E06D40F40050E065A7
:100E20002068C16C11F4C07F1AD000218A4602F0FC
:100E3000BAF802462068484514D1434613E02068BA
:100E4000416821F00C014160E06D20F48070E065A4
:100E5000E06DC004CFD4E06D40F00100E065CAE76A
:100E60000121E3E70346834208D03FB1062F05D0B6
:100E7000072F03D0484503D1414602E0C16801E095
:100E80000146C968BAF1000F14D08B0102D58AB1AE
:100E90008A040FD4026852060CD589020AD402F0E3
:100EA00076F8E8B3E06D40F01000E065206E40F0A9
:100EB000010020662046FFF784FC2168602008605E
:100EC00030060BD5280609D5E06D40F48030E0658A
:100ED000204600F083F9216880200860F0050CD5D9
:100EE000E8050AD5E06D40F40030E0652046FFF7E4
:100EF0006AFC21684FF480700860B0050CD5A80525
:100F00000AD5E06D40F48020E0652046FFF75CFCE8
:100F100021684FF400700860F00631D5E80600E063
:100F20000AE02DD5E06BE8B12068EFB3404501D071
:100F3000484512D1584611E02068416821F060010F
:100F40004160E06D20F48050E065E06DC005B1D4F3
:100F5000E06D40F00100E065ACE71948806800F4FE
:100F6000604050B1E06D40F48060E065206E40F07C
:100F7000020020662046FFF7DEFE21681020086090
:100F8000700517D5680515D5E06D40F48040E06523
:100F9000206E40F00800206621684FF480600860F1
:100FA0002046BDE8F05F00E001E0FFF70BBCC06841
:100FB000C007D6E7BDE8F09F0003005000010050D5
:100FC00000070050F8B54FF0000504002E460095CC
:100FD00002D0E06D10B107E00120F8BD204600F01E
:100FE000FFF8266684F8586020688168C1F3407174
:100FF00019B181686F4A1140816020688168C1F32E
:10100000007189B981686C4A114041F0805181605A
:101010006A486B490068B0FBF1F04000801C00E0BA
:10102000401E00900028FBD120688168C1F3007148
:1010300041B9E16D41F01001E165216E41F001011E
:101040002166012501F0A7FFE16DC90600D430B18A
:10105000E06D40F01000E06501252846F8BDE06D28
:1010600020F4807040F00200E0652068816811F093
:10107000010F20D14FF0A043524A984201D0904234
:1010800007D19968966801F0010106F00106314325
:1010900003E04D49896801F0010161B9984201D02E
:1010A000904201D1494800E049486168826822F4D1
:1010B0007C120A438260E168E06B627F0843A168AA
:1010C00041EA4231084394F8241040EA01400129E2
:1010D00004D1218D3F4A02EB41410843E16A29B125
:1010E00001F47871226B014342EA01002168CA6869
:1010F000394B1A400243CA6020680169626B21F0D3
:10110000406111430161206801F041FF70BB207F05
:1011100094F83810800340EA41022168C86844F21C
:10112000020398431043C8602069002820680169C1
:101130000AD041F480310161206850F8C01F226953
:101140006FF30D01114307E021F480310161206844
:1011500050F8C01F6FF30D01016094F840000128A2
:101160000CD02068016921F001010161606901284A
:101170002068016B21F00F0111D013E0D4E91101B7
:101180000843D4E913121143084321680A6940F265
:10119000FC739A43104340F001000861E6E7226ABD
:1011A000521E11430163E06D20F0020040F0010087
:1011B000E06552E7C0FFFF5FC0FFFF7F180000201F
:1011C000400D0300000100500004005000030050D7
:1011D000000700500000FEFF0740F0FF70470000CE
:1011E00010B59AB00446142114A8FFF751F9502104
:1011F0006846FFF74DF92068B0F1A04F2ED14FF4AB
:101200000040009080031090684600F0C9FB08B1D0
:10121000FFF78AFA1248C16C41F40051C164C16CF5
:1012200001F400511991C16C41F00101C164C06C1D
:1012300014A900F0010019900120149003201590CA
:10124000002016904FF0904000F07EF800221146EA
:10125000122000F00DFB122000F0FCFA1AB010BDB5
:101260000010024010B590F8253000210122022B19
:1012700003D00421C163012122E003681C6824F02B
:101280000E041C60836C1C6824F480741C6003686A
:101290001C6824F001041C6090F84430046C03F0D6
:1012A0001F0302FA03F36360D0E913345C60436DFB
:1012B00033B11C6824F480741C60D0E916345C607F
:1012C00080F82520002280F82420084610BD70B543
:1012D00090F82520002401212346022A07D0042269
:1012E000C26380F8251080F82430012429E00268C8
:1012F000156825F00E0515600268156825F00105D2
:101300001560826C156825F48075156090F844208E
:10131000056C02F01F0201FA02F26A60D0E913259F
:101320005560426D32B1156825F480751560D0E9BD
:101330001625556080F8251080F82430816B01B1A6
:101340008847204670BD00002DE9F04FDFF820925D
:10135000002301260324A9F1040B85B00F2709F10E
:10136000040AABF1040EFAE006FA03F52A407CD039
:1013700091F804C00CF0030CBCF1010F02D0BCF1D9
:10138000020F26D1D0F808C0CDF800C04FEA430CB8
:1013900004FA0CF8CDF810C0DDF800C02CEA080CF7
:1013A000CDF800C0D1F80C80DDF810C008FA0CF8B8
:1013B000DDF800C048EA0C08C0F80880D0F804C086
:1013C0002CEA050C0D79C5F300159D4045EA0C0586
:1013D00045600D79ED43AD070ED0C5684FEA43086F
:1013E00004FA08FC25EA0C05D1F808C00CFA08FC40
:1013F0004CEA050CC0F80CC00D7905F00305022D70
:1014000016D1DD0800EB850CCDF808C0DCF8208093
:101410005D074FEAD56C07FA0CF528EA05080D6957
:1014200005FA0CF5DDF808C045EA0805CCF82050AF
:1014300005684FEA430CCDF808C004FA0CFC25EA15
:101440000C0591F804C00CF00308DDF808C008FA98
:101450000CF848EA0508C0F800804D6815F4403FD4
:101460007CD0444DD5F860C000E077E04CF0010C32
:10147000C5F860C02D6E23F0030C05F00105009542
:101480003D4D65440295AD684FEA837C4FEA1C7878
:1014900007FA08FC25EA0C05B0F1904F06D0DFF8FA
:1014A000DCC0604505D14FF0010C20E04FF0000C8E
:1014B0001DE0DFF8CCC0604502D14FF0020C16E011
:1014C000DFF8C0C0604502D14FF0030C0FE0DFF839
:1014D000B8C0604502D14FF0040C08E0DFF8ACC0A2
:1014E000604502D14FF0050C01E04FF0060C0CFAFC
:1014F00008FC4CEA050C029DC5F808C0D9F800505C
:10150000CC46D1F8048095435FEAC82800D515433E
:10151000CCF80050DAF80050D446D1F80480954356
:101520005FEA882800D51543CCF80050DBF800505E
:10153000DC46D1F8048095435FEA883800D515432E
:10154000CCF80050DEF80050F446D1F80480954302
:101550005FEAC83800D51543CCF800505B1C0A6818
:1015600032FA03F57FF400AF05B0BDE8F08F00005C
:10157000080401400010024000000140000400483F
:1015800000080048000C0048001000480014004803
:101590000AB181617047816270470000014880682C
:1015A000704700000C00002090F84120202A24D130
:1015B00090F84020012A20D0012280F840202422E7
:1015C00080F841200268136823F001031360026869
:1015D000136823F480531360026813680B4313608D
:1015E00001680A6842F001020A60202180F8411077
:1015F000002180F84010084670470220704790F89C
:101600004120202A22D190F84020012A1ED0012218
:1016100080F84020242280F841200268136823F0DB
:10162000010313600268136823F4706343EA012125
:10163000116001680A6842F001020A60202180F806
:101640004110002180F84010084670470220704782
:1016500070B5040004D094F84100002510B106E0F4
:10166000012070BD84F84050204600F04FF824203F
:1016700084F841002068016821F001010160606880
:10168000216820F0706008612068816821F40041C1
:101690008160E0680128A06830D040F404402168EF
:1016A0008860E0680228206841682AD021F400613F
:1016B000416020684168144A114341602068C16854
:1016C00021F40041C160D4E904010843A16940EA62
:1016D00001202168C860D4E9070108432168086037
:1016E0002068016841F0010101606564202084F8F0
:1016F0004100256384F84250002070BD40F4004052
:10170000CDE741F40061D3E700800002F0B59BB063
:101710000446142114A8FEF7BBFE50216846FEF7CC
:10172000B7FE20492068884239D14020002500902A
:101730000795684600F034F908B1FEF7F5FF1A4C3A
:10174000E06C40F00100E064E06C00F001001990F2
:10175000E06C40F00200E064E06C122600F0020051
:1017600019904FF400401490CDE915650427CDE998
:10177000175714A9B006FFF7E7FD80201490CDE9B4
:101780001565CDE9175714A90848FFF7DDFDA06DD1
:1017900040F40010A065A06D00F4001019901BB07B
:1017A000F0BD00000054004000100240000400485A
:1017B0000248816842681144816070470C00002033
:1017C00010B50024032000F073F80F2000F008F893
:1017D00008B1012401E000F025F8204610BD00000A
:1017E00070B50E4E05460024706898B14FF47A71BA
:1017F000B1FBF0F00A490968B1FBF0F000F08EFD92
:1018000040B9102D06D200222946501E00F030F8B3
:10181000356000E00124204670BD00000C0000206F
:10182000180000200A4882B0016E41F001010166F3
:10183000016E01F001010091816D41F080518165DF
:10184000806D00F08050009002B000F0A1B8000060
:1018500000100240002809DB00F01F020121914026
:101860004009800000F1E020C0F80011704700003E
:10187000F0B40E4B1B680C46C3F30223C3F10705FB
:10188000042D00D90425191D072901D2002300E0E9
:10189000DB1E012606FA05F1491E214099409E40B3
:1018A000761E16403143F0BC02F0DBBB0CED00E0CD
:1018B000064900F0070208684FF6FF03184040EAA7
:1018C0000220034A10430860704700000CED00E05E
:1018D0000000FA052B492C4B0A6832214A432B4958
:1018E00040B1B0F5007F086829D020F4C06040F412
:1018F00080602CE00868C0F34120022804D051F831
:10190000800F20F4807022E0D1F8800020F48070F5
:10191000C1F88000086820F4C06040F400700860DE
:10192000B2FBF3F0401C00E0401E4A69520501D5AD
:101930000028F9D1486940050AD503207047C0F353
:101940004120022806D051F8800F40F480700860D2
:1019500000207047D1F8800040F48070C1F880000A
:10196000086820F4C06040F400700860B2FBF3F037
:10197000401C00E0401E4A695205DBD50028F9D121
:10198000D8E700001800002040420F00007000401F
:101990000248816841F480418160704700700040D6
:1019A0002DE9F843044600680026B54D00035ED5D6
:1019B000A86D0027C00008D4A86D40F08050A8652D
:1019C000A86D012700F080500090DFF8B892D9F898
:1019D000001041F48071C9F80010FFF7DFFD804668
:1019E00006E000BFFFF7DAFDA0EB080002282BD8C5
:1019F000D9F80000C005F5D5D5F8900010F4407076
:101A000014D0E16C814211D0D5F89000D5F8901037
:101A100020F4407041F48031C5F89010D5F8901052
:101A200021F48031C5F89010C5F89000C00711D09E
:101A3000FFF7B4FD804641F2883907E0FFF7AEFDBD
:101A4000A0EB0801494501D903260BE0D5F8900029
:101A50008007F3D5D5F89000E16C20F4407008437E
:101A6000C5F890001FB1A86D20F08050A8652078BF
:101A7000C00707D0D5F88800616820F0030008434C
:101A8000C5F888002078800707D5D5F88800A168B8
:101A900020F00C000843C5F888002078400707D5DF
:101AA000D5F88800E16820F030000843C5F88800C8
:101AB0002078000707D5D5F88800216920F0C000FC
:101AC0000843C5F888002078C00607D5D5F88800F7
:101AD000616920F440700843C5F8880020788006CA
:101AE00007D5D5F88800A16920F440600843C5F8FF
:101AF00088002078400607D5D5F88800E16920F4F1
:101B000040500843C5F888002078000607D5D5F86E
:101B10008800216A20F440400843C5F888002088E6
:101B2000C00507D5D5F88800616A20F44030084325
:101B3000C5F888002088800507D5D5F88800A16AF7
:101B400020F440200843C5F88800208840050FD5C0
:101B5000D5F88800E16A20F440100843C5F88800F1
:101B6000E06AB0F5801F03D1E86840F48010E860B7
:101B7000208800050FD5D5F88800216B20F440009F
:101B80000843C5F88800206BB0F5800F03D1E868E2
:101B900040F48010E8602088C0040FD5D5F8880094
:101BA000616B20F040700843C5F88800606BB0F1AD
:101BB000807F03D1E86840F48010E86020884FF00F
:101BC000006180040ED5D5F88800A26B20F040603B
:101BD0001043C5F88800A06B884203D1E86840F440
:101BE0008010E860208840040ED5D5F88800E26BAC
:101BF00020F040601043C5F88800E06B884203D1B4
:101C0000E86840F48010E860208800040FD5D5F81B
:101C10008800216C20F040500843C5F88800206CF3
:101C2000B0F1805F03D1E86840F48030E86020685C
:101C3000C0030FD5D5F88800616C20F04040084300
:101C4000C5F88800606CB0F1804F03D1E86840F4BB
:101C50008030E860206840030FD5D5F89C00A16C67
:101C600020F440100843C5F89C00A06CB0F5001F9C
:101C700003D1E86840F48010E8603046BDE8F8839E
:101C800000100240007000402DE9F0470E460500AC
:101C90004FF0000725D0DFF8AC81D8F8000000F045
:101CA0000F00B0420CD2D8F8001021F00F013143E0
:101CB000C8F80010D8F8000000F00F00B04210D1B2
:101CC0002968614CC80741F2883A5AD06868DFF841
:101CD0007C91032808D0022820682DD040050028D8
:101CE0002CDB0120BDE8F08720688001F9D5E06891
:101CF00000F00302E068C0F30310401C032A19D06F
:101D0000534A00BFB2FBF0F0E268C2F30622504330
:101D1000E268C2F34162521C5200B0FBF2F0484547
:101D200017D9A06810F0F00F0CD0880711D5A8685B
:101D300040B10EE0474AE5E78003D0E700F0B6F88F
:101D4000484506D9A06820F0F00040F08000A0606F
:101D50008027A068696820F003000843A060FFF7AF
:101D60001DFC814606E000BFFFF718FCA0EB09014F
:101D700051453AD8A068696800F00C00B0EB810FBB
:101D8000F2D12868810714D5400703D5A06840F434
:101D9000E060A0602878000705D5A06820F46050B6
:101DA00040F4E060A060A068A96820F0F00008435B
:101DB00004E0802F03D1A06820F0F000A060D8F8E4
:101DC0000010404601F00F01B14216D9016821F020
:101DD0000F0131430160FFF7E1FB074607E000BF59
:101DE000FFF7DCFBC11B514501D903207AE7D8F886
:101DF000000000F00F00B042F2D12878400705D56E
:101E0000A068E96820F4E0600843A0602878000733
:101E100006D5A068296920F4605040EAC100A0609E
:101E200000F044F8A1680C4AC1F30311515C01F0C1
:101E30001F01C8400949086009480068BDE8F0472B
:101E4000FFF7CEBC002002400010024000B4C404E2
:101E50000024F40000127A0052410008180000200B
:101E60000C0000200548064900688968054AC1F34E
:101E70000221515C01F01F01C8407047180000208A
:101E80000010024062410008054806490068896860
:101E9000054AC1F3C221515C01F01F01C8407047DF
:101EA000180000200010024062410008184910B5D7
:101EB0008868C0F381021748012A0BD08A68431052
:101EC000C2F38102022A06D08A68C2F38102032A81
:101ED00003D0002010BD184610BDCA6802F00304EC
:101EE000CA68C2F30312521C032C02D0B0FBF2F0FA
:101EF00001E0B3FBF2F0CA68C968C2F3062250439E
:101F0000C1F34161491C4900B0FBF1F010BD000074
:101F1000001002400024F4002DE9F84304007AD0B8
:101F20002078F84DC00747D0A868E96800F00C0099
:101F300001F003010C2802D0082817D001E0032982
:101F400014D06068B0F5803F17D0B0F5A02F286896
:101F500017D020F480302860286820F48020286082
:101F60006068E0B1FFF71AFB064614E028688003BA
:101F700022D560680028D2D01EE0286840F4803066
:101F8000EDE740F480202860F7E700BFFFF706FB8D
:101F9000801B642870D828688003F7D50CE0FFF711
:101FA000FDFA064605E000BFFFF7F8FA801B64283B
:101FB000F0D828688003F7D4207880074CD5A8682B
:101FC000E96800F00C0001F003010C2802D004289D
:101FD0000DD001E002290AD0E068002828682BD043
:101FE00040F480702860FFF7D9FA064619E02868A7
:101FF000400502D5E068002891D06868217C20F077
:10200000FE4040EA01606860BF480068FFF7E8FBF7
:10201000002800D120E072E1FFF7C0FA801B0228FF
:10202000B8D828684005F7D56868217C20F0FE40C4
:1020300040EA016068600FE020F480702860FFF7DC
:10204000ADFA064605E000BFFFF7A8FA801B02289C
:10205000A0D828684005F7D42078000729D5606902
:102060000028D5F8940013D040F00100C5F8940082
:10207000FFF794FA064606E090E000BFFFF78EFAFD
:10208000801B022886D8D5F894008007F6D510E08A
:1020900020F00100C5F89400FFF780FA064604E03E
:1020A000FFF77CFA801B022878D8D5F894008007C7
:1020B000F6D42078400761D5A86D0026C00008D46A
:1020C000A86D40F08050A865A86D012600F08050F2
:1020D00000908E480168C90511D40168804641F41A
:1020E00080710160FFF75AFA074604E0FFF756FADD
:1020F000C01B022852D8D8F80000C005F6D5A06849
:10210000012815D00528D5F8900016D020F0010040
:10211000C5F89000D5F8900020F00400C5F89000B4
:10212000A06841F28838B8B1FFF738FA07460EE0E8
:10213000D5F8900040F00100F0E740F00400C5F849
:102140009000F5E7FFF72AFAC11B414526D8D5F8DC
:1021500090008007F6D50CE0FFF720FA074604E070
:10216000FFF71CFAC11B414518D8D5F8900080072D
:10217000F6D41EB1A86D20F08050A86520788006A6
:1021800029D5A0690028D5F8980013D040F00100A7
:10219000C5F89800FFF702FA064606E075E000BFB2
:1021A000FFF7FCF9801B02286FD8D5F8980080074C
:1021B000F6D510E020F00100C5F89800FFF7EEF921
:1021C000064604E0FFF7EAF9801B02285DD8D5F83F
:1021D00098008007F6D4E069F0B3A968C1F38101E3
:1021E00003295DD00228286820F08070286003D081
:1021F000FFF7D4F904464BE0FFF7D0F9064604E0B8
:10220000FFF7CCF9801B02283FD828688001F7D45B
:10221000F4E908016FF00F0202EB01110843218A73
:102220005204490802EB4151A26841EA02210843E5
:10223000217D4FF07E42490802EB41610843217B3A
:1022400040EAC160E968324A11400843E860286802
:1022500040F08070286000E05EE0E86840F0807048
:10226000E860FFF79BF9044605E000BFFFF796F929
:10227000001B022809D828688001F7D54CE000BF70
:10228000FFF78CF9001B022802D90320BDE8F88370
:1022900028688001F4D4E8681E490840E8603BE003
:1022A0000128F3D0E868226A00F00301914226D1A8
:1022B000616A00F0F0020901103991421FD1A26A4F
:1022C00000F4FE41B1EB022F19D194F82C2000F05C
:1022D0007841B1EBC26F12D1218E00F4C0024908DF
:1022E0004905A1F50011914209D194F8341000F08C
:1022F000C06049084906A1F1007181420CD001205B
:10230000C4E70000001002400C00002000700040F4
:102310000C809F01FCFFEEFE0020B7E710B5401EC9
:10232000B0F1807F01D3012010BD4FF0E024606147
:102330000F21601701F095FE0020A06107202061A9
:10234000002010BD70477047704770477047704756
:10235000F0B590F83C20012A40D0012580F83C508F
:10236000022280F83D2003685A689C681C4E1D4F6D
:10237000DFF874C0B34203D0BB4201D0634504D13F
:1023800022F4700E4A6842EA0E02DFF860E002EAC8
:102390000E02D1F800E04EEA020EC3F804E0026833
:1023A000B2420FD0B2F1804F0CD0114B9A4209D0FB
:1023B000104B9A4206D0BA4204D00F4B9A4201D039
:1023C000624504D1896824F080031943916080F844
:1023D0003D50002180F83C100846F0BD0220F0BDC1
:1023E000002C014000340140005001408FFFFFFDF0
:1023F000000400400008004000400140704710B554
:10240000040003D094F83D0010B107E0012010BD96
:10241000002084F83C00204600F022F8022084F8D6
:102420003D00211D206800F0D1FF012084F8480004
:1024300084F83E0084F83F0084F8400084F84100AE
:1024400084F8420084F8430084F8440084F845008E
:1024500084F8460084F8470084F83D00002010BD51
:1024600008B500680B49884212D10B48016E41F44F
:1024700000610166006E002200F4006000901146C9
:102480001920FFF7F5F9BDE808401920FFF7E2B978
:1024900008BD0000002C01400010024090F83D10E3
:1024A000012901D001207047022180F83D10016808
:1024B000CA6842F00102CA6000681149884211D01E
:1024C000B0F1804F0ED00F4988420BD00E498842A0
:1024D00008D00E49884205D00D49884202D00D49E6
:1024E000884207D181680C4A1140062906D0B1F50F
:1024F000803F03D0016841F0010101600020704776
:10250000002C01400004004000080040003401405D
:1025100000400140005001400700010070B5044632
:1025200090F83C000025012815D0012684F83C6075
:10253000022084F83D0022689068374B184020F450
:102540007F4090600868B0F5805F28D010DC10F004
:102550000F0F03D022E04FF0020070BD4FEA2012AF
:10256000082A1BD2DFE802F0535353534B39412260
:102570002A4BC21A98424AD00ADCB0F5005F20D03C
:10258000B0F1101F43D0A0F58011203906D13EE0F4
:10259000102A3CD0202A3AD0402A38D0012584F88D
:1025A0003D60002084F83C00284670BDCB68D1E92E
:1025B0000121206800F074FF2068816841F07701F4
:1025C00009E0CB68D1E90121206800F069FF2068AB
:1025D000816841F480418160E1E7CA684968206808
:1025E00000F072FF5021206806E0CA684968206840
:1025F00000F07BFF6021206800F05CFFCFE7CA6835
:102600004968206800F060FF40212068F4E72268F4
:1026100001461046F0E7000088FFCEFF30001000B2
:1026200070472DE9F04104460068C66805694FF01F
:102630000007A90713D5B10711D5F91E01610120C3
:102640002077206880698007204602D0FFF7E8FFE6
:1026500004E000F0B7F8204600F0B5F827776807E7
:1026600016D5700714D521686FF0040008610220A8
:1026700020772068806910F4407F204602D0FFF761
:10268000CFFF04E000F09EF8204600F09CF827778A
:10269000280715D5300713D521686FF008000861A9
:1026A000042020772068C0698007204602D0FFF709
:1026B000B7FF04E000F086F8204600F084F82777A2
:1026C000E80616D5F00614D521686FF010000861F1
:1026D000082020772068C06910F4407F204602D08F
:1026E000FFF79EFF04E000F06DF8204600F06BF865
:1026F0002777E80708D0F00706D021686FF00100BF
:102700000861204600F060F8280601D4A80408D526
:10271000300606D521686FF4025008612046FFF7A5
:1027200012FEE80508D5300606D521686FF48070E2
:1027300008612046FFF706FE680608D5700606D534
:1027400021686FF040000861204600F051F8A806AB
:1027500008D5B00606D521686FF020000861204634
:10276000FFF7F2FDE80208D5F00206D521686FF404
:10277000801008612046FFF7E9FDA80208D5B002E5
:1027800006D521686FF4001008612046FFF7DDFDD3
:10279000680208D5700206D521686FF480000861D0
:1027A0002046FFF7D4FD28020AD5300208D521685B
:1027B0006FF4000008612046BDE8F041FFF71EBE3F
:1027C000BDE8F08170477047074A016807489142A9
:1027D00002D1C188491CC1808168491C81600929D6
:1027E00001D1002181607047002C014000000020D1
:1027F000704790F88410012918D0012180F88410C6
:102800002421C0F8881001680A680B6823F00103CE
:102810000B6022F0005100224266036819602021FB
:10282000C0F8881080F88420104670470220704756
:102830007047704770B5044690F8840001281DD099
:10284000012084F884002420C4F8880020680568EA
:10285000026822F0010202602068826822F0606251
:102860000A438260204600F053FE20680560202065
:10287000C4F88800002084F8840070BD022070BD78
:1028800070B5044690F8840001281DD0012084F81A
:1028900084002420C4F8880020680568026822F0BB
:1028A000010202602068826822F060420A4382606E
:1028B000204600F02DFE206805602020C4F8880026
:1028C000002084F8840070BD022070BD70477047FE
:1028D000704700002DE9F04103680446D869196883
:1028E0009A6840F60F0528424FF000054FF00206A7
:1028F0000AD187067ED501F0200702F0805C57EAF6
:102900000C0777D0616F3AE1B24FDFF8CCC21740C5
:1029100001EA0C0C57EA0C0C6CD05FEAC07C0CD0BE
:102920005FEAC15C09D54FF0010CC3F820C0D4F8B0
:10293000903043F00103C4F89030830709D5D307E2
:1029400007D023681E62D4F8903043F00403C4F823
:10295000903043070AD5D30708D026680423336292
:10296000D4F8903043F00203C4F8903003070CD53C
:1029700001F020033B4308D0266808233362D4F8D3
:10298000903043F00803C4F8903003050BD54B0199
:1029900009D526684FF400633362D4F8903043F0D1
:1029A0002003C4F89030D4F89030002B3DD080063E
:1029B00009D501F0200002F08051084303D0616F77
:1029C00009B120468847D4F89000216889684906F3
:1029D00002D410F0280F2AD0204600F07FFE206895
:1029E000806840061ED52068083050E8001F21F09E
:1029F000400100E021E040E80012002AF3D1D4F8C1
:102A0000800078B175498163D4F88000FEF75FFCDF
:102A100000280AD0D4F88000816B00E02046BDE891
:102A2000F04108472046FFF753FFBDE8F0812046FC
:102A3000FFF74EFFC4F89050F7E7D4F86CC020279A
:102A4000BCF1010F7ED15FEAC06C7BD55FEAC16C3F
:102A500078D51020186220688068400645D5D4F8E3
:102A60008010086840680004000CDED0B4F85C20D8
:102A70008242DAD9A4F85E000868006880062CD487
:102A8000216851E8000F20F4807041E80002002A1C
:102A9000F6D12068083050E8001F21F0010140E81D
:102AA0000012002AF5D12068083050E8001F21F0FC
:102AB000400140E80012002AF5D1C4F88C70E566A8
:102AC000206850E8001F21F0100140E80012002AA1
:102AD000F6D1D4F88000FEF7C5FB2667B4F85C0099
:102AE000B4F85E10401A81B230E0B4F85C00B4F87B
:102AF0005E10401A81B2B4F85E00002895D000291B
:102B000093D0226852E8000F20F4907042E800034E
:102B1000002BF6D12F4BDB432068083050E8002F04
:102B20001A4040E8002CBCF1000FF5D1C4F88C70BD
:102B3000E5666567226852E8000F20F0100042E861
:102B4000000300E006E0002BF4D126672046FFF7E3
:102B50006FFE6AE7C60209D5560207D54FF480100A
:102B600018622046BDE8F041FFF7B1BE03060AD562
:102B700001F0800302F40002134304D0A16F002986
:102B80007FF44CAF51E7420611D54A060FD52046D7
:102B9000026852E8001F21F0400142E80013002BB8
:102BA000F6D1C0F88870856700F0E9F93DE70202C8
:102BB00006D54A0004D52046BDE8F041FFF786BEA1
:102BC000C001C6D50029C4DA2046BDE8F041FFF7B0
:102BD00030BE00000100001020010004C9360008CA
:102BE00010B5040003D0D4F8880010B107E001202C
:102BF00010BD002084F88400204600F027F824202F
:102C0000C4F888002068016821F001010160A06A11
:102C100010B1204600F09EFC204600F0F1FF012894
:102C2000E6D02068416821F49041416020688168C5
:102C300021F02A0181602068016841F001010160F2
:102C40002046BDE8104000F0E9BC0000F0B59BB0A4
:102C50000446142114A8FDF71BFC50216846FDF71B
:102C600017FC48492068484C07270226002588425F
:102C700029D10120CDE900056846FEF791FE08B193
:102C8000FDF752FD206E40F480402066206E00F477
:102C900080401990E06C40F00400E064E06C14A9FE
:102CA00000F00400199030201490CDE91565CDE9AD
:102CB00017573648FEF748FB002211462520FEF73D
:102CC000D7FD25202BE0324988422CD1684600965A
:102CD0000295FEF765FE08B1FDF726FDA06D40F4F4
:102CE0000030A065A06D00F400301990E06C40F059
:102CF0000100E064E06C14A900F0010019900C20C0
:102D00001490CDE91565CDE917574FF09040FEF7C7
:102D10001BFB002211462620FEF7AAFD2620FEF707
:102D200099FD1BB0F0BD1B498842FAD104200090E8
:102D300003956846FEF734FE08B1FDF7F5FCA06D7B
:102D400040F48020A065A06D00F480201990E06C14
:102D500040F00200E064E06C14A900F00200199059
:102D60004FF440601490CDE91565CDE917570A4836
:102D7000FEF7EAFA002211462720FEF779FD272008
:102D8000CDE7000000380140001002400008004874
:102D900000440040004800400004004830B4D0F82F
:102DA0008C30202B02D0022030BC7047A9B1A2B1D8
:102DB0000023C3660A4C0368A3420BD05B681B0266
:102DC00008D5046854E8003F43F0806344E80035C8
:102DD000002DF6D130BC01F05FB80120E4E700001F
:102DE00000800040F8B52D49006800258E142C4C59
:102DF000884220D12B482178A2784254491CCAB27B
:102E00002270012A12D9104410F8011C0A290DD190
:102E100010F8020C0D2809D16B1E2249224800F03F
:102E200057F8257031461F48FDF710FB1C49012259
:102E3000891C1D482CE01D4988422DD01C49884220
:102E40002AD11C49607822790A54401CC0B26070B3
:102E5000084410F8010C0A2816D117A11548FDF7EF
:102E6000E3FA009058B116A1FDF7DEFA009030B1F8
:102E700008300A2269460090FDF79EFAA06065704E
:102E800031460C48FDF7E2FA054901220F48091DB9
:102E9000BDE8F840FFF782BFF8BD000000380140F0
:102EA000000000201C0000202821002000440040D9
:102EB000004800401C100020224C4544223A0000EB
:102EC0002276616C7565223A0000000050220020D5
:102ED0002DE9F8430446D0F88800984616460D467A
:102EE000202802D00220BDE8F883A5B19EB10020C1
:102EF000C4F890002120C4F888001834FEF74EFB77
:102F0000A6878146E68754F8100C2027183CB0F5B8
:102F1000805F02D003E00120E5E7206910B12E4672
:102F2000002510E000260EE08021204601F03CF84C
:102F3000C0B9DEB116F8010B21688862B4F85600FA
:102F4000401EA4F85600B4F856004B464FF000025D
:102F5000CDF800800028E7D14FF04001204601F075
:102F600023F840B1C4F888700320BCE735F8020BA1
:102F7000C0F30800E0E7C4F888700020B3E77047AA
:102F8000FEE700EB8100006E00F0F84070478068BB
:102F9000C0F3C00070478068C0F38000704780684D
:102FA000C0F380007047C06810F4406F01D000206B
:102FB000704701207047042303EAD15310B5184429
:102FC0004369C1F3045107248C40A3438A4013434F
:102FD000436110BD00EB8100016E21F000411143FF
:102FE0000166704730B58BB0002408940994202105
:102FF00068460A94FDF74CFA1C484FF0A04104259E
:1030000001604FF44031C0E90114C4600461C0E9BB
:103010000545047744770121016280F82440C462A9
:10302000046380F83840C46380F84040FDF7CAFF6D
:1030300008B1FDF779FB08A90C480894FDF7C6FB19
:1030400008B1FDF771FB0A4800900620CDE90104A4
:103050007F200594CDE9030569460448FDF746FC49
:10306000002801D0FDF760FB0BB030BD1C20002014
:10307000020030042DE9F04387B014216846FDF7C3
:1030800007FA2B48C16C41F00401C164C16C01F026
:1030900004010591C16C41F00101C164C16C01F0F2
:1030A00001010591C16C41F00201C164C06C214F66
:1030B00000F002000590002284213846FEF768FAED
:1030C0004FF474764FF09048002231464046FEF7A8
:1030D0005FFADFF86490002270214846FEF758FA44
:1030E0008420009001250024CDE90154694638462A
:1030F0000394FEF729F90220CDE900046946404611
:103100000294FEF721F90096CDE901546946404644
:103110000394FEF719F970200090CDE90154694637
:1031200048460394FEF710F907B0BDE8F0830000AD
:10313000001002400008004800040048134810B581
:10314000114901601249416000210122C0E90212C7
:10315000016141618161C1610162FEF779FA08B1E3
:10316000FDF7E2FA00210948FEF71EFA08B1FDF763
:10317000DBFA00210548FEF742FA002803D0BDE83B
:103180001040FDF7D1BA10BD005400408820002047
:10319000FBA7A03010B588B0002419480594069408
:1031A000039404940094019414490294016044F23D
:1031B0006821C0E9011442F21071C0E903148021B2
:1031C000C0E90541FFF71BF908B1FDF7ADFA4FF46F
:1031D0008050039003A90A48FFF7A0F908B1FDF752
:1031E000A3FA00940194694605480294FFF7B0F8E9
:1031F000002801D0FDF798FA08B010BD002C01405E
:10320000DC200020184810B5164901604FF4E13168
:103210004160002181600C22C160C0E9041281611B
:10322000C161016241628162FFF7DAFC08B1FDF71A
:103230007BFA00210C48FFF723FB08B1FDF774FA75
:1032400000210948FFF7F6FA08B1FDF76DFA0648C4
:10325000FFF7CFFA002803D0BDE81040FDF764BAAD
:1032600010BD00000038014028210020184810B58A
:10327000164901604FF4E1314160002181600C2268
:10328000C160C0E904128161C16101624162816271
:10329000FFF7A6FC08B1FDF747FA00210C48FFF73D
:1032A000EFFA08B1FDF740FA00210948FFF7C2FA2A
:1032B00008B1FDF739FA0648FFF79BFA002803D05A
:1032C000BDE81040FDF730BA10BD000000440040DA
:1032D000BC210020184810B5164901604FF4E131B7
:1032E0004160002181600C22C160C0E9041281614B
:1032F000C161016241628162FFF772FC08B1FDF7B2
:1033000013FA00210C48FFF7BBFA08B1FDF70CFADD
:1033100000210948FFF78EFA08B1FDF705FA0648C3
:10332000FFF767FA002803D0BDE81040FDF7FCB9AD
:1033300010BD00000048004050220020FEE7FEE7DC
:1033400070477047FEF734BA00B593B0382168462D
:10335000FDF79EF814210EA8FDF79AF80020FEF75D
:10336000B9FA0220C1010391402104910421CDE961
:10337000080100905521CDE90A1007900C900D909E
:103380006846FEF7C9FD08B172B6FEE70F200E9041
:1033900003200F90002010901190129004210EA88D
:1033A000FEF772FC002801D072B6FEE713B000BD34
:1033B0000248016841F470010160704788ED00E047
:1033C0000148FFF72EB90000DC2000202DE9F0476E
:1033D00002682B4B2B4E2C4F2C4C2D4D4FF0804A1E
:1033E000984209D0504507D0B04205D0B84203D02A
:1033F000A04201D0A84204D122F0700C4A6842EAEF
:103400000C02DFF890C0DFF89080DFF890909842CF
:103410000FD050450DD0B0420BD0B84209D0A042D9
:1034200007D0604505D0404503D0484501D0A842AB
:1034300003D122F44076CA6832434E6922F08002FA
:10344000324302608A68C2620A688262984209D086
:10345000A04207D0604505D0404503D0484501D083
:10346000A84201D109690163012141610169C907CC
:1034700003D0016921F001010161BDE8F08700007E
:10348000002C0140000400400008004000340140CE
:10349000005001400040014000440140004801400C
:1034A00010B5846842EA032224F47F440A4322438D
:1034B000826010BD8268034B1A400A4342F0070144
:1034C000816070478FFFCFFF10B5036A046A24F054
:1034D00001040462846924F0F00444EA021423F035
:1034E0000A020A438461026210BD10B5036A046ACD
:1034F00024F010040462846923F0A00324F47044CF
:1035000044EA023243EA01118261016210BD000007
:1035100030B5416EB9B1026891689268C1F34261F9
:103520000B4B520F9C5CE50003F10804A25CB5FB59
:10353000F2F2A0F86A205A5C615CD200B2FBF1F1B1
:10354000A0F8681030BD0121A0F86A10F8E700006B
:103550004241000890F82810090706D501684A681A
:10356000836B22F400421A434A6090F82810C9077E
:1035700006D001684A68C36A22F400321A434A60DE
:1035800090F82810890706D501684A68036B22F471
:1035900080321A434A6090F82810490706D501681E
:1035A0004A68436B22F480221A434A6090F828103C
:1035B000C90606D501688A68C36B22F480521A4393
:1035C0008A6090F82810890606D501688A68036C1D
:1035D00022F400521A438A6090F82810490611D547
:1035E00001684A68436C22F480121A434A60416CB5
:1035F000B1F5801F06D101684A68836C22F4C002CD
:103600001A434A6090F82810090606D501684A68EE
:10361000C06C22F4002202434A6070472DE9F8434F
:1036200000260446C0F89060FDF7B8FF8046206889
:1036300000684FF0200500076FF07E4713D5434622
:10364000002229042046009700F0AEFC58B1216802
:1036500051E8000F20F0800041E80002002AF6D176
:10366000C4F8885021E020680068400722D543460E
:1036700000224FF480012046009700F095FCC8B16D
:10368000216851E8000F20F4907041E80002002A00
:10369000F6D12068083050E8001F21F0010140E811
:1036A0000012002AF5D1C4F88C5084F884600320FD
:1036B000BDE8F883C4F88850C4F88C5044F86C6FA7
:1036C000666026760020F3E710B5806A0021A0F836
:1036D0005E10A0F85610FFF7FBF810BD10B5026899
:1036E00052E8001F21F4907142E80013002BF6D13C
:1036F0000E4B0268083252E8001F194042E80014DD
:10370000002CF6D1C16E012908D1016851E8002FC3
:1037100022F0100241E80023002BF6D12021C0F84E
:103720008C100021C166416710BD0000FEFFFFEF55
:1037300010B5B0F86020D0F88C300168222B04D08E
:10374000886940F00800886110BD496A836D1140A6
:103750001980816D891C8165B0F85E10491EA0F842
:103760005E10B0F85E100029EED1026852E8001F2A
:1037700021F4907142E80013002BF6D10168083162
:1037800051E8002F22F0010241E80023002BF5D17F
:103790002021C0F88C10002141670167154B026899
:1037A0009A420BD05268120208D5036853E8002FE2
:1037B00022F0806243E80024002CF6D1C26E012A78
:1037C00002D0FFF70FFB10BDC166026852E8001F70
:1037D00021F0100142E80013002BF6D10168CA69FC
:1037E000D243D20601D410220A62B0F85C10FFF76F
:1037F0001FF810BD008000402DE9F0470446B0F8E6
:1038000060600068C569D0F800A0D0F80880D4F8DE
:103810008C10222905D0816941F008018161BDE841
:10382000F087B4F868704FF0000975E02068406ACE
:10383000A16D30400880A06D801CA065B4F85E00CA
:10384000401EA4F85E002068C569690730D0E9070A
:103850000AD05FEACA5107D501210162D4F890006D
:1038600040F00100C4F89000A8070BD55FEAC870CB
:1038700008D0216802200862D4F8900040F00400CB
:10388000C4F8900068070BD55FEAC87008D02168BB
:1038900004200862D4F8900040F00200C4F89000C0
:1038A000D4F8900020B12046FFF712F8C4F89090A9
:1038B000B4F85E0080BB216851E8000F20F48070EE
:1038C00041E80002002AF6D1304A2068083050E86A
:1038D000001F114040E80013002BF6D12020C4F84F
:1038E0008C00C4F874904946C4F87090284A206847
:1038F00090420BD04068000208D5226852E8000FC1
:1039000020F0806342E800300028F6D1E06E012804
:1039100025D02046FFF766FA0FB1A80686D4B4F882
:103920005E0000283FF47BAFB4F8681081427FF658
:1039300076AF2068083050E8001F21F0805140E841
:103940000012002AF5D113486067216851E8000F82
:1039500040F0200041E80002002AF6D15FE7E1666E
:10396000216851E8000F20F0100041E80002002A11
:10397000F6D12068C169C943C90601D4102101628A
:10398000B4F85C102046FEF753FFC5E7FEFFFFEFDB
:10399000008000403137000810B5B0F86020D0F842
:1039A0008C300168222B04D0886940F008008861BF
:1039B00010BD496A1140826D1170816D491C81658D
:1039C000B0F85E10491EA0F85E10B0F85E10002935
:1039D000EED1016851E8002F22F4907241E80023F3
:1039E000002BF6D10168083151E8002F22F00102C6
:1039F00041E80023002BF5D12021C0F88C100021D4
:103A000041670167154B02689A420BD05268120257
:103A100008D5036853E8002F22F0806243E80024B1
:103A2000002CF6D1C26E012A02D0FFF7DBF910BDDF
:103A3000C166026852E8001F21F0100142E800133D
:103A4000002BF6D10168CA69D243D20601D41022F4
:103A50000A62B0F85C10FEF7EBFE10BD008000407B
:103A60002DE9F0470446B0F860600068C569D0F8F9
:103A700000A0D0F80880D4F88C10222905D08169E4
:103A800041F008018161BDE8F087B4F868704FF03B
:103A9000000975E02068406AA16D30400870A06D93
:103AA000401CA065B4F85E00401EA4F85E002068CB
:103AB000C569690730D0E9070AD05FEACA5107D55E
:103AC00001210162D4F8900040F00100C4F8900098
:103AD000A8070BD55FEAC87008D0216802200862E9
:103AE000D4F8900040F00400C4F8900068070BD5AB
:103AF0005FEAC87008D0216804200862D4F89000FA
:103B000040F00200C4F89000D4F8900020B12046A4
:103B1000FEF7DEFEC4F89090B4F85E0080BB21682A
:103B200051E8000F20F4807041E80002002AF6D12D
:103B3000304A2068083050E8001F114040E8001368
:103B4000002BF6D12020C4F88C00C4F874904A46AB
:103B5000C4F870902849206888420BD04068000261
:103B600008D5216851E8000F20F0806041E800038B
:103B7000002BF6D1E06E012825D02046FFF732F960
:103B80000FB1A80686D4B4F85E0000283FF47BAFDE
:103B9000B4F8681081427FF676AF2068083050E8AC
:103BA000001F21F0805140E80012002AF5D113488F
:103BB0006067206850E8001F41F0200140E80012D3
:103BC000002AF6D15FE7E266216851E8000F20F095
:103BD000100041E80002002AF6D12068C169C943FB
:103BE000C90601D410210162B4F85C102046FEF72A
:103BF0001FFEC5E7FEFFFFEF008000409939000877
:103C00002DE9F0410446016880682269E3691043A8
:103C1000626900251A431043DFF84CC20A68934BCF
:103C20001A4002430A6020684168E26821F440516A
:103C3000114341602168A069614501D0226A1043A7
:103C40008A688B4B1A4002438A602068C16A626AA4
:103C500021F00F011143C1628649236886488B42D7
:103C60000DD1D0F8880010F0030006D0012867D0ED
:103C7000022854D0032851D164E001204FE07F494D
:103C80008B420BD1D0F8880010F00C0047D00428EC
:103C900045D0082852D00C2840D153E078498B42B7
:103CA0000BD1D0F8880010F0300038D0102847D061
:103CB000202843D0302831D144E072498B420BD1C7
:103CC000D0F8880010F0C00029D0402838D08028D3
:103CD00034D0C02822D135E06B498B420ED1D0F8C8
:103CE000880010F440701AD0B0F5807F28D0B0F56D
:103CF000007F23D0B0F5407F10D123E063450DD184
:103D0000D0F8880010F4406009D0B0F5806F17D06B
:103D1000B0F5006F12D0B0F5406F13D010205B4AA1
:103D20005B4F00264FF40041634539D160B1022852
:103D30000DD004280DD0082831D10EE00220EEE786
:103D40000420ECE70820EAE7FEF78CF803E01146D0
:103D500003E0FEF7ABF801007BD0606A37F8102073
:103D60006768B1FBF2F007EB4703834269D8B0EB19
:103D7000073F66D8002308461946FCF7A6FA090251
:103D800041EA106102027808101871413A46002396
:103D9000FCF79BFA3F4AA0F54071914257D950E099
:103DA000E3694FF6EF788B422BD1092849D2DFE83F
:103DB00000F005080D48254848480E00FEF752F867
:103DC00001E0FEF761F8010001D142E01146606AAE
:103DD00037F81000B1FBF0F04100606801EB5001D2
:103DE000B1FBF0F1A1F1100040452AD84FF6F07276
:103DF00001EA0200C1F34201084328E0FEF756F849
:103E0000E1E709281DD2DFE800F005080D1C1E1CA3
:103E10001C1C0E00FEF726F801E0FEF735F8010045
:103E200001D116E01146606A37F81000B1FBF0F1DD
:103E3000606801EB5001B1FBF0F0A0F110014145C9
:103E400004D9012505E0FEF731F8E8E780B22168E2
:103E5000C8600120A4F86A0024F8680F2846E660CC
:103E60002661BDE8F081000000800040F369FFCFCB
:103E7000FFF4FF11003801400010024000440040F0
:103E800000480040004C0040005000400024F40076
:103E90002A410008FFFC0F0070B58165A0F85C2086
:103EA000A0F85E200023436781684FF48056FF240A
:103EB000B14204D10169F9B940F2FF1122E07F2536
:103EC000C1B1B1F1805F1AD0A0F86030C0F8903075
:103ED0002221C0F88C100168083151E8003F43F0FE
:103EE000010341E80034002CF5D1416EB1F1005FCF
:103EF0000ED031E0016941B9A0F86040E6E7016900
:103F000019B13F21A0F86010E0E7A0F86050DDE7AC
:103F1000B0F8681091421FD88168B14201D101699F
:103F2000B9B11D494167016941B1026852E8001FFA
:103F300041F4807142E80013002BF6D1016808318A
:103F400051E8002F42F0805241E80023002BF5D1C8
:103F500020E012494167F1E78168B14201D101696E
:103F600069B10F494167016959B1026852E8001F00
:103F700041F4907142E80013002BF6D10AE00949A0
:103F80004167026852E8001F41F0200142E8001337
:103F9000002BF6D1002070BD613A0008F937000807
:103FA00099390008313700082DE9F047994617463E
:103FB0000D4604464FF00008089E33E0701C31D0D7
:103FC000FDF7ECFAA0EB0900B04218D8BEB12068AA
:103FD0000168490726D5802D24D0402D22D0C16903
:103FE000C94309070DD4082505622046FFF776FB73
:103FF000C4F8905084F884800120BDE8F087032045
:10400000FBE7C069C04300050CD421684FF4006091
:1040100008622046FFF762FB2020C4F8900084F875
:104020008480ECE72068C06935EA000004D00020F5
:10403000B842C3D00020E0E70120F9E70148FEF7CD
:1040400049BC0000282100200148FEF743BC0000C5
:10405000BC2100200148FEF73DBC0000502200209A
:10406000FEE70907090E002804DB00F1E02080F8D4
:104070000014704700F00F0000F1E02080F8141DDC
:1040800070477047FDF79CFBFFF75EF9FEF7F2FF04
:10409000FFF7B8F8FFF7EAF8FFF71CF9FFF74EF85B
:1040A000FEF7A0FFFFF776F87F210C48FCF73EFBF8
:1040B0000B48FEF7F3F901220A490B48FEF76EFEA2
:1040C00008490122491C0948FEF768FE05490122FA
:1040D000891C0748FEF762FEFEE700001C20002056
:1040E000DC2000200200002028210020BC2100202C
:1040F0005022002010B500290AD00878002807D0E7
:1041000005487844FCF790FA002801D0002010BD43
:104110000248784410BD00008A00000082000000C0
:104120004FF04070E1EE100A7047010002000400F9
:10413000060008000A000C0010002000400080006B
:104140000001010101030701000008040204080145
:104150000101000000000000000001020304060746
:104160000809000000000102030400009C4200084E
:10417000000000201C00000014020008B8420008E3
:104180001C0000202C290000300200081001000053
:1041900043000000F8FFFFFF004040404040404027
:1041A000404041414141414040404040404040400A
:1041B00040404040404040404005020202020202AE
:1041C00002020202020202020220202020202020FD
:1041D0002020200202020202020290909090909011
:1041E00010101010101010101010101010101010CF
:1041F0001010101002020202020288888888888843
:10420000080808080808080808080808080808082E
:104210000808080802020202400000000000000036
:10422000000000000000000000000000000000008E
:10423000000000000000000000000000000000007E
:10424000000000000000000000000000000000006E
:10425000000000000000000000000000000000005E
:10426000000000000000000000000000000000004E
:10427000000000000000000000000000000000003E
:10428000000000000000000000000000000000002E
:10429000000000000000000000000000000000001E
:1042A00000000000000000001000000001000000FD
:0842B000000000000024F400EE
:04000005080001D915
:00000001FF
